{
  "_format": "hh-sol-artifact-1",
  "contractName": "IrysNFTSecure",
  "sourceName": "contracts/IrysNFTSecure.sol",
  "abi": [
    {
      "inputs": [
        {
          "internalType": "string",
          "name": "name",
          "type": "string"
        },
        {
          "internalType": "string",
          "name": "symbol",
          "type": "string"
        },
        {
          "internalType": "address",
          "name": "initialOwner",
          "type": "address"
        }
      ],
      "stateMutability": "nonpayable",
      "type": "constructor"
    },
    {
      "inputs": [
        {
          "internalType": "address",
          "name": "sender",
          "type": "address"
        },
        {
          "internalType": "uint256",
          "name": "tokenId",
          "type": "uint256"
        },
        {
          "internalType": "address",
          "name": "owner",
          "type": "address"
        }
      ],
      "name": "ERC721IncorrectOwner",
      "type": "error"
    },
    {
      "inputs": [
        {
          "internalType": "address",
          "name": "operator",
          "type": "address"
        },
        {
          "internalType": "uint256",
          "name": "tokenId",
          "type": "uint256"
        }
      ],
      "name": "ERC721InsufficientApproval",
      "type": "error"
    },
    {
      "inputs": [
        {
          "internalType": "address",
          "name": "approver",
          "type": "address"
        }
      ],
      "name": "ERC721InvalidApprover",
      "type": "error"
    },
    {
      "inputs": [
        {
          "internalType": "address",
          "name": "operator",
          "type": "address"
        }
      ],
      "name": "ERC721InvalidOperator",
      "type": "error"
    },
    {
      "inputs": [
        {
          "internalType": "address",
          "name": "owner",
          "type": "address"
        }
      ],
      "name": "ERC721InvalidOwner",
      "type": "error"
    },
    {
      "inputs": [
        {
          "internalType": "address",
          "name": "receiver",
          "type": "address"
        }
      ],
      "name": "ERC721InvalidReceiver",
      "type": "error"
    },
    {
      "inputs": [
        {
          "internalType": "address",
          "name": "sender",
          "type": "address"
        }
      ],
      "name": "ERC721InvalidSender",
      "type": "error"
    },
    {
      "inputs": [
        {
          "internalType": "uint256",
          "name": "tokenId",
          "type": "uint256"
        }
      ],
      "name": "ERC721NonexistentToken",
      "type": "error"
    },
    {
      "inputs": [
        {
          "internalType": "address",
          "name": "owner",
          "type": "address"
        }
      ],
      "name": "OwnableInvalidOwner",
      "type": "error"
    },
    {
      "inputs": [
        {
          "internalType": "address",
          "name": "account",
          "type": "address"
        }
      ],
      "name": "OwnableUnauthorizedAccount",
      "type": "error"
    },
    {
      "inputs": [],
      "name": "ReentrancyGuardReentrantCall",
      "type": "error"
    },
    {
      "anonymous": false,
      "inputs": [
        {
          "indexed": true,
          "internalType": "address",
          "name": "owner",
          "type": "address"
        },
        {
          "indexed": true,
          "internalType": "address",
          "name": "approved",
          "type": "address"
        },
        {
          "indexed": true,
          "internalType": "uint256",
          "name": "tokenId",
          "type": "uint256"
        }
      ],
      "name": "Approval",
      "type": "event"
    },
    {
      "anonymous": false,
      "inputs": [
        {
          "indexed": true,
          "internalType": "address",
          "name": "owner",
          "type": "address"
        },
        {
          "indexed": true,
          "internalType": "address",
          "name": "operator",
          "type": "address"
        },
        {
          "indexed": false,
          "internalType": "bool",
          "name": "approved",
          "type": "bool"
        }
      ],
      "name": "ApprovalForAll",
      "type": "event"
    },
    {
      "anonymous": false,
      "inputs": [
        {
          "indexed": false,
          "internalType": "uint256",
          "name": "_fromTokenId",
          "type": "uint256"
        },
        {
          "indexed": false,
          "internalType": "uint256",
          "name": "_toTokenId",
          "type": "uint256"
        }
      ],
      "name": "BatchMetadataUpdate",
      "type": "event"
    },
    {
      "anonymous": false,
      "inputs": [
        {
          "indexed": false,
          "internalType": "uint256",
          "name": "_tokenId",
          "type": "uint256"
        }
      ],
      "name": "MetadataUpdate",
      "type": "event"
    },
    {
      "anonymous": false,
      "inputs": [
        {
          "indexed": true,
          "internalType": "address",
          "name": "to",
          "type": "address"
        },
        {
          "indexed": true,
          "internalType": "uint256",
          "name": "tokenId",
          "type": "uint256"
        },
        {
          "indexed": false,
          "internalType": "string",
          "name": "tokenURI",
          "type": "string"
        }
      ],
      "name": "NFTMinted",
      "type": "event"
    },
    {
      "anonymous": false,
      "inputs": [
        {
          "indexed": true,
          "internalType": "address",
          "name": "previousOwner",
          "type": "address"
        },
        {
          "indexed": true,
          "internalType": "address",
          "name": "newOwner",
          "type": "address"
        }
      ],
      "name": "OwnershipTransferred",
      "type": "event"
    },
    {
      "anonymous": false,
      "inputs": [
        {
          "indexed": true,
          "internalType": "address",
          "name": "from",
          "type": "address"
        },
        {
          "indexed": true,
          "internalType": "address",
          "name": "to",
          "type": "address"
        },
        {
          "indexed": true,
          "internalType": "uint256",
          "name": "tokenId",
          "type": "uint256"
        }
      ],
      "name": "Transfer",
      "type": "event"
    },
    {
      "inputs": [
        {
          "internalType": "address",
          "name": "to",
          "type": "address"
        },
        {
          "internalType": "uint256",
          "name": "tokenId",
          "type": "uint256"
        }
      ],
      "name": "approve",
      "outputs": [],
      "stateMutability": "nonpayable",
      "type": "function"
    },
    {
      "inputs": [
        {
          "internalType": "address",
          "name": "owner",
          "type": "address"
        }
      ],
      "name": "balanceOf",
      "outputs": [
        {
          "internalType": "uint256",
          "name": "",
          "type": "uint256"
        }
      ],
      "stateMutability": "view",
      "type": "function"
    },
    {
      "inputs": [
        {
          "internalType": "uint256",
          "name": "tokenId",
          "type": "uint256"
        }
      ],
      "name": "getApproved",
      "outputs": [
        {
          "internalType": "address",
          "name": "",
          "type": "address"
        }
      ],
      "stateMutability": "view",
      "type": "function"
    },
    {
      "inputs": [],
      "name": "getCurrentTokenId",
      "outputs": [
        {
          "internalType": "uint256",
          "name": "",
          "type": "uint256"
        }
      ],
      "stateMutability": "view",
      "type": "function"
    },
    {
      "inputs": [
        {
          "internalType": "address",
          "name": "addr",
          "type": "address"
        }
      ],
      "name": "getRemainingMintForAddress",
      "outputs": [
        {
          "internalType": "uint256",
          "name": "",
          "type": "uint256"
        }
      ],
      "stateMutability": "view",
      "type": "function"
    },
    {
      "inputs": [],
      "name": "getRemainingSupply",
      "outputs": [
        {
          "internalType": "uint256",
          "name": "",
          "type": "uint256"
        }
      ],
      "stateMutability": "view",
      "type": "function"
    },
    {
      "inputs": [
        {
          "internalType": "address",
          "name": "owner",
          "type": "address"
        },
        {
          "internalType": "address",
          "name": "operator",
          "type": "address"
        }
      ],
      "name": "isApprovedForAll",
      "outputs": [
        {
          "internalType": "bool",
          "name": "",
          "type": "bool"
        }
      ],
      "stateMutability": "view",
      "type": "function"
    },
    {
      "inputs": [],
      "name": "maxMintPerAddress",
      "outputs": [
        {
          "internalType": "uint256",
          "name": "",
          "type": "uint256"
        }
      ],
      "stateMutability": "view",
      "type": "function"
    },
    {
      "inputs": [],
      "name": "maxSupply",
      "outputs": [
        {
          "internalType": "uint256",
          "name": "",
          "type": "uint256"
        }
      ],
      "stateMutability": "view",
      "type": "function"
    },
    {
      "inputs": [
        {
          "internalType": "address",
          "name": "to",
          "type": "address"
        },
        {
          "internalType": "string",
          "name": "uri",
          "type": "string"
        }
      ],
      "name": "mint",
      "outputs": [],
      "stateMutability": "nonpayable",
      "type": "function"
    },
    {
      "inputs": [],
      "name": "mintActive",
      "outputs": [
        {
          "internalType": "bool",
          "name": "",
          "type": "bool"
        }
      ],
      "stateMutability": "view",
      "type": "function"
    },
    {
      "inputs": [],
      "name": "mintPrice",
      "outputs": [
        {
          "internalType": "uint256",
          "name": "",
          "type": "uint256"
        }
      ],
      "stateMutability": "view",
      "type": "function"
    },
    {
      "inputs": [
        {
          "internalType": "address",
          "name": "",
          "type": "address"
        }
      ],
      "name": "mintedByAddress",
      "outputs": [
        {
          "internalType": "uint256",
          "name": "",
          "type": "uint256"
        }
      ],
      "stateMutability": "view",
      "type": "function"
    },
    {
      "inputs": [],
      "name": "name",
      "outputs": [
        {
          "internalType": "string",
          "name": "",
          "type": "string"
        }
      ],
      "stateMutability": "view",
      "type": "function"
    },
    {
      "inputs": [],
      "name": "owner",
      "outputs": [
        {
          "internalType": "address",
          "name": "",
          "type": "address"
        }
      ],
      "stateMutability": "view",
      "type": "function"
    },
    {
      "inputs": [
        {
          "internalType": "uint256",
          "name": "tokenId",
          "type": "uint256"
        }
      ],
      "name": "ownerOf",
      "outputs": [
        {
          "internalType": "address",
          "name": "",
          "type": "address"
        }
      ],
      "stateMutability": "view",
      "type": "function"
    },
    {
      "inputs": [],
      "name": "renounceOwnership",
      "outputs": [],
      "stateMutability": "nonpayable",
      "type": "function"
    },
    {
      "inputs": [
        {
          "internalType": "address",
          "name": "from",
          "type": "address"
        },
        {
          "internalType": "address",
          "name": "to",
          "type": "address"
        },
        {
          "internalType": "uint256",
          "name": "tokenId",
          "type": "uint256"
        }
      ],
      "name": "safeTransferFrom",
      "outputs": [],
      "stateMutability": "nonpayable",
      "type": "function"
    },
    {
      "inputs": [
        {
          "internalType": "address",
          "name": "from",
          "type": "address"
        },
        {
          "internalType": "address",
          "name": "to",
          "type": "address"
        },
        {
          "internalType": "uint256",
          "name": "tokenId",
          "type": "uint256"
        },
        {
          "internalType": "bytes",
          "name": "data",
          "type": "bytes"
        }
      ],
      "name": "safeTransferFrom",
      "outputs": [],
      "stateMutability": "nonpayable",
      "type": "function"
    },
    {
      "inputs": [
        {
          "internalType": "address",
          "name": "operator",
          "type": "address"
        },
        {
          "internalType": "bool",
          "name": "approved",
          "type": "bool"
        }
      ],
      "name": "setApprovalForAll",
      "outputs": [],
      "stateMutability": "nonpayable",
      "type": "function"
    },
    {
      "inputs": [
        {
          "internalType": "uint256",
          "name": "newMax",
          "type": "uint256"
        }
      ],
      "name": "setMaxMintPerAddress",
      "outputs": [],
      "stateMutability": "nonpayable",
      "type": "function"
    },
    {
      "inputs": [
        {
          "internalType": "uint256",
          "name": "newMaxSupply",
          "type": "uint256"
        }
      ],
      "name": "setMaxSupply",
      "outputs": [],
      "stateMutability": "nonpayable",
      "type": "function"
    },
    {
      "inputs": [
        {
          "internalType": "bool",
          "name": "active",
          "type": "bool"
        }
      ],
      "name": "setMintActive",
      "outputs": [],
      "stateMutability": "nonpayable",
      "type": "function"
    },
    {
      "inputs": [
        {
          "internalType": "uint256",
          "name": "",
          "type": "uint256"
        }
      ],
      "name": "setMintPrice",
      "outputs": [],
      "stateMutability": "nonpayable",
      "type": "function"
    },
    {
      "inputs": [
        {
          "internalType": "bytes4",
          "name": "interfaceId",
          "type": "bytes4"
        }
      ],
      "name": "supportsInterface",
      "outputs": [
        {
          "internalType": "bool",
          "name": "",
          "type": "bool"
        }
      ],
      "stateMutability": "view",
      "type": "function"
    },
    {
      "inputs": [],
      "name": "symbol",
      "outputs": [
        {
          "internalType": "string",
          "name": "",
          "type": "string"
        }
      ],
      "stateMutability": "view",
      "type": "function"
    },
    {
      "inputs": [
        {
          "internalType": "uint256",
          "name": "tokenId",
          "type": "uint256"
        }
      ],
      "name": "tokenURI",
      "outputs": [
        {
          "internalType": "string",
          "name": "",
          "type": "string"
        }
      ],
      "stateMutability": "view",
      "type": "function"
    },
    {
      "inputs": [
        {
          "internalType": "address",
          "name": "from",
          "type": "address"
        },
        {
          "internalType": "address",
          "name": "to",
          "type": "address"
        },
        {
          "internalType": "uint256",
          "name": "tokenId",
          "type": "uint256"
        }
      ],
      "name": "transferFrom",
      "outputs": [],
      "stateMutability": "nonpayable",
      "type": "function"
    },
    {
      "inputs": [
        {
          "internalType": "address",
          "name": "newOwner",
          "type": "address"
        }
      ],
      "name": "transferOwnership",
      "outputs": [],
      "stateMutability": "nonpayable",
      "type": "function"
    }
  ],
  "bytecode": "0x60806040526000600a908155600b55612710600c55600d805460ff191660011790553480156200002e57600080fd5b5060405162001e3338038062001e338339810160408190526200005191620001eb565b808383600062000062838262000307565b50600162000071828262000307565b5050506001600160a01b038116620000a357604051631e4fbdf760e01b81526000600482015260240160405180910390fd5b620000ae81620000d4565b50600160085560098054906000620000c683620003d3565b9190505550505050620003fb565b600780546001600160a01b038381166001600160a01b0319831681179093556040519116919082907f8be0079c531659141344cd1fd0a4f28419497f9722a3daafe3b4186f6b6457e090600090a35050565b634e487b7160e01b600052604160045260246000fd5b600082601f8301126200014e57600080fd5b81516001600160401b03808211156200016b576200016b62000126565b604051601f8301601f19908116603f0116810190828211818310171562000196576200019662000126565b81604052838152602092508683858801011115620001b357600080fd5b600091505b83821015620001d75785820183015181830184015290820190620001b8565b600093810190920192909252949350505050565b6000806000606084860312156200020157600080fd5b83516001600160401b03808211156200021957600080fd5b62000227878388016200013c565b945060208601519150808211156200023e57600080fd5b506200024d868287016200013c565b604086015190935090506001600160a01b03811681146200026d57600080fd5b809150509250925092565b600181811c908216806200028d57607f821691505b602082108103620002ae57634e487b7160e01b600052602260045260246000fd5b50919050565b601f8211156200030257600081815260208120601f850160051c81016020861015620002dd5750805b601f850160051c820191505b81811015620002fe57828155600101620002e9565b5050505b505050565b81516001600160401b0381111562000323576200032362000126565b6200033b8162000334845462000278565b84620002b4565b602080601f8311600181146200037357600084156200035a5750858301515b600019600386901b1c1916600185901b178555620002fe565b600085815260208120601f198616915b82811015620003a45788860151825594840194600190910190840162000383565b5085821015620003c35787850151600019600388901b60f8161c191681555b5050505050600190811b01905550565b600060018201620003f457634e487b7160e01b600052601160045260246000fd5b5060010190565b611a28806200040b6000396000f3fe608060405234801561001057600080fd5b50600436106101cf5760003560e01c80636f8b44b011610104578063c87b56dd116100a2578063e985e9c511610071578063e985e9c5146103a9578063ee1cc944146103bc578063f2fde38b146103cf578063f4a0a528146103e257600080fd5b8063c87b56dd14610372578063d0def52114610385578063d5abeb0114610398578063e4b7fb73146103a157600080fd5b80638da5cb5b116100de5780638da5cb5b1461033357806395d89b4114610344578063a22cb4651461034c578063b88d4fde1461035f57600080fd5b80636f8b44b01461030557806370a0823114610318578063715018a61461032b57600080fd5b80633061861d11610171578063561892361161014b57806356189236146102d8578063572849c4146102e05780636352211e146102e95780636817c76c146102fc57600080fd5b80633061861d146102845780633ca63f2c146102a557806342842e0e146102c557600080fd5b8063095ea7b3116101ad578063095ea7b31461023c5780631e14d44b1461025157806323b872dd1461026457806325fd90f31461027757600080fd5b806301ffc9a7146101d457806306fdde03146101fc578063081812fc14610211575b600080fd5b6101e76101e2366004611482565b6103f5565b60405190151581526020015b60405180910390f35b610204610406565b6040516101f391906114ef565b61022461021f366004611502565b610498565b6040516001600160a01b0390911681526020016101f3565b61024f61024a366004611537565b6104c1565b005b61024f61025f366004611502565b6104d0565b61024f610272366004611561565b610532565b600d546101e79060ff1681565b61029761029236600461159d565b6105bd565b6040519081526020016101f3565b6102976102b336600461159d565b600e6020526000908152604090205481565b61024f6102d3366004611561565b6105e3565b600954610297565b610297600b5481565b6102246102f7366004611502565b610603565b610297600a5481565b61024f610313366004611502565b61060e565b61029761032636600461159d565b610680565b61024f6106c8565b6007546001600160a01b0316610224565b6102046106dc565b61024f61035a3660046115c6565b6106eb565b61024f61036d366004611689565b6106f6565b610204610380366004611502565b61070e565b61024f610393366004611705565b610719565b610297600c5481565b6102976109e7565b6101e76103b7366004611767565b610a09565b61024f6103ca36600461179a565b610a37565b61024f6103dd36600461159d565b610a52565b61024f6103f0366004611502565b610a90565b600061040082610aa0565b92915050565b606060008054610415906117b7565b80601f0160208091040260200160405190810160405280929190818152602001828054610441906117b7565b801561048e5780601f106104635761010080835404028352916020019161048e565b820191906000526020600020905b81548152906001019060200180831161047157829003601f168201915b5050505050905090565b60006104a382610ac5565b506000828152600460205260409020546001600160a01b0316610400565b6104cc828233610afe565b5050565b6104d8610b0b565b6000811161052d5760405162461bcd60e51b815260206004820152601f60248201527f4d6178206d696e74206d7573742062652067726561746572207468616e20300060448201526064015b60405180910390fd5b600b55565b6001600160a01b03821661055c57604051633250574960e11b815260006004820152602401610524565b6000610569838333610b38565b9050836001600160a01b0316816001600160a01b0316146105b7576040516364283d7b60e01b81526001600160a01b0380861660048301526024820184905282166044820152606401610524565b50505050565b6001600160a01b0381166000908152600e6020526040812054600b546104009190611807565b6105fe838383604051806020016040528060008152506106f6565b505050565b600061040082610ac5565b610616610b0b565b60095481101561067b5760405162461bcd60e51b815260206004820152602a60248201527f43616e6e6f7420736574206d617820737570706c792062656c6f772063757272604482015269656e7420737570706c7960b01b6064820152608401610524565b600c55565b60006001600160a01b0382166106ac576040516322718ad960e21b815260006004820152602401610524565b506001600160a01b031660009081526003602052604090205490565b6106d0610b0b565b6106da6000610c31565b565b606060018054610415906117b7565b6104cc338383610c83565b610701848484610532565b6105b73385858585610d22565b606061040082610e4d565b610721610f5e565b600d5460ff1661076b5760405162461bcd60e51b81526020600482015260156024820152744d696e74696e67206973206e6f742061637469766560581b6044820152606401610524565b6001600160a01b0382166107c15760405162461bcd60e51b815260206004820152601b60248201527f43616e6e6f74206d696e7420746f207a65726f206164647265737300000000006044820152606401610524565b600b546001600160a01b0383166000908152600e60205260409020541061082a5760405162461bcd60e51b815260206004820152601d60248201527f4d6178206d696e742070657220616464726573732065786365656465640000006044820152606401610524565b600c5460095411156108745760405162461bcd60e51b815260206004820152601360248201527213585e081cdd5c1c1b1e48195e18d959591959606a1b6044820152606401610524565b6001600160a01b0382163b15610952576040516301ffc9a760e01b8152630a85bd0160e11b60048201526001600160a01b038316906301ffc9a790602401602060405180830381865afa1580156108cf573d6000803e3d6000fd5b505050506040513d601f19601f820116820180604052508101906108f3919061181a565b6109525760405162461bcd60e51b815260206004820152602a60248201527f526563697069656e7420636f6e747261637420646f6573206e6f7420737570706044820152696f72742045524337323160b01b6064820152608401610524565b60098054600181019091556001600160a01b0383166000908152600e6020526040812080549161098183611837565b91905055506109908382610f88565b61099a8183610fa2565b80836001600160a01b03167fd35bb95e09c04b219e35047ce7b7b300e3384264ef84a40456943dbc0fc17c14846040516109d491906114ef565b60405180910390a3506104cc6001600855565b6000600954600c546109f99190611807565b610a04906001611850565b905090565b6001600160a01b03918216600090815260056020908152604080832093909416825291909152205460ff1690565b610a3f610b0b565b600d805460ff1916911515919091179055565b610a5a610b0b565b6001600160a01b038116610a8457604051631e4fbdf760e01b815260006004820152602401610524565b610a8d81610c31565b50565b610a98610b0b565b506000600a55565b60006001600160e01b03198216632483248360e11b1480610400575061040082610ff2565b6000818152600260205260408120546001600160a01b03168061040057604051637e27328960e01b815260048101849052602401610524565b6105fe8383836001611042565b6007546001600160a01b031633146106da5760405163118cdaa760e01b8152336004820152602401610524565b6000828152600260205260408120546001600160a01b0390811690831615610b6557610b65818486611148565b6001600160a01b03811615610ba357610b82600085600080611042565b6001600160a01b038116600090815260036020526040902080546000190190555b6001600160a01b03851615610bd2576001600160a01b0385166000908152600360205260409020805460010190555b60008481526002602052604080822080546001600160a01b0319166001600160a01b0389811691821790925591518793918516917fddf252ad1be2c89b69c2b068fc378daa952ba7f163c4a11628f55a4df523b3ef91a4949350505050565b600780546001600160a01b038381166001600160a01b0319831681179093556040519116919082907f8be0079c531659141344cd1fd0a4f28419497f9722a3daafe3b4186f6b6457e090600090a35050565b6001600160a01b038216610cb557604051630b61174360e31b81526001600160a01b0383166004820152602401610524565b6001600160a01b03838116600081815260056020908152604080832094871680845294825291829020805460ff191686151590811790915591519182527f17307eab39ab6107e8899845ad3d59bd9653f200f220920489ca2b5937696c31910160405180910390a3505050565b6001600160a01b0383163b15610e4657604051630a85bd0160e11b81526001600160a01b0384169063150b7a0290610d64908890889087908790600401611863565b6020604051808303816000875af1925050508015610d9f575060408051601f3d908101601f19168201909252610d9c918101906118a0565b60015b610e08573d808015610dcd576040519150601f19603f3d011682016040523d82523d6000602084013e610dd2565b606091505b508051600003610e0057604051633250574960e11b81526001600160a01b0385166004820152602401610524565b805160208201fd5b6001600160e01b03198116630a85bd0160e11b14610e4457604051633250574960e11b81526001600160a01b0385166004820152602401610524565b505b5050505050565b6060610e5882610ac5565b5060008281526006602052604081208054610e72906117b7565b80601f0160208091040260200160405190810160405280929190818152602001828054610e9e906117b7565b8015610eeb5780601f10610ec057610100808354040283529160200191610eeb565b820191906000526020600020905b815481529060010190602001808311610ece57829003601f168201915b505050505090506000610f0960408051602081019091526000815290565b90508051600003610f1b575092915050565b815115610f4d578082604051602001610f359291906118bd565b60405160208183030381529060405292505050919050565b610f56846111ac565b949350505050565b600260085403610f8157604051633ee5aeb560e01b815260040160405180910390fd5b6002600855565b6104cc828260405180602001604052806000815250611221565b6000828152600660205260409020610fba8282611932565b506040518281527ff8e1a15aba9398e019f0b49df1a4fde98ee17ae345cb5f6b5e2c27f5033e8ce79060200160405180910390a15050565b60006001600160e01b031982166380ac58cd60e01b148061102357506001600160e01b03198216635b5e139f60e01b145b8061040057506301ffc9a760e01b6001600160e01b0319831614610400565b808061105657506001600160a01b03821615155b1561111857600061106684610ac5565b90506001600160a01b038316158015906110925750826001600160a01b0316816001600160a01b031614155b80156110a557506110a38184610a09565b155b156110ce5760405163a9fbf51f60e01b81526001600160a01b0384166004820152602401610524565b81156111165783856001600160a01b0316826001600160a01b03167f8c5be1e5ebec7d5bd14f71427d1e84f3dd0314c0f7b2291e5b200ac8c7c3b92560405160405180910390a45b505b5050600090815260046020526040902080546001600160a01b0319166001600160a01b0392909216919091179055565b611153838383611239565b6105fe576001600160a01b03831661118157604051637e27328960e01b815260048101829052602401610524565b60405163177e802f60e01b81526001600160a01b038316600482015260248101829052604401610524565b60606111b782610ac5565b5060006111cf60408051602081019091526000815290565b905060008151116111ef576040518060200160405280600081525061121a565b806111f98461129c565b60405160200161120a9291906118bd565b6040516020818303038152906040525b9392505050565b61122b838361132f565b6105fe336000858585610d22565b60006001600160a01b03831615801590610f565750826001600160a01b0316846001600160a01b0316148061127357506112738484610a09565b80610f565750506000908152600460205260409020546001600160a01b03908116911614919050565b606060006112a983611394565b600101905060008167ffffffffffffffff8111156112c9576112c96115fd565b6040519080825280601f01601f1916602001820160405280156112f3576020820181803683370190505b5090508181016020015b600019016f181899199a1a9b1b9c1cb0b131b232b360811b600a86061a8153600a85049450846112fd57509392505050565b6001600160a01b03821661135957604051633250574960e11b815260006004820152602401610524565b600061136783836000610b38565b90506001600160a01b038116156105fe576040516339e3563760e11b815260006004820152602401610524565b60008072184f03e93ff9f4daa797ed6e38ed64bf6a1f0160401b83106113d35772184f03e93ff9f4daa797ed6e38ed64bf6a1f0160401b830492506040015b6d04ee2d6d415b85acef810000000083106113ff576d04ee2d6d415b85acef8100000000830492506020015b662386f26fc10000831061141d57662386f26fc10000830492506010015b6305f5e1008310611435576305f5e100830492506008015b612710831061144957612710830492506004015b6064831061145b576064830492506002015b600a83106104005760010192915050565b6001600160e01b031981168114610a8d57600080fd5b60006020828403121561149457600080fd5b813561121a8161146c565b60005b838110156114ba5781810151838201526020016114a2565b50506000910152565b600081518084526114db81602086016020860161149f565b601f01601f19169290920160200192915050565b60208152600061121a60208301846114c3565b60006020828403121561151457600080fd5b5035919050565b80356001600160a01b038116811461153257600080fd5b919050565b6000806040838503121561154a57600080fd5b6115538361151b565b946020939093013593505050565b60008060006060848603121561157657600080fd5b61157f8461151b565b925061158d6020850161151b565b9150604084013590509250925092565b6000602082840312156115af57600080fd5b61121a8261151b565b8015158114610a8d57600080fd5b600080604083850312156115d957600080fd5b6115e28361151b565b915060208301356115f2816115b8565b809150509250929050565b634e487b7160e01b600052604160045260246000fd5b600067ffffffffffffffff8084111561162e5761162e6115fd565b604051601f8501601f19908116603f01168101908282118183101715611656576116566115fd565b8160405280935085815286868601111561166f57600080fd5b858560208301376000602087830101525050509392505050565b6000806000806080858703121561169f57600080fd5b6116a88561151b565b93506116b66020860161151b565b925060408501359150606085013567ffffffffffffffff8111156116d957600080fd5b8501601f810187136116ea57600080fd5b6116f987823560208401611613565b91505092959194509250565b6000806040838503121561171857600080fd5b6117218361151b565b9150602083013567ffffffffffffffff81111561173d57600080fd5b8301601f8101851361174e57600080fd5b61175d85823560208401611613565b9150509250929050565b6000806040838503121561177a57600080fd5b6117838361151b565b91506117916020840161151b565b90509250929050565b6000602082840312156117ac57600080fd5b813561121a816115b8565b600181811c908216806117cb57607f821691505b6020821081036117eb57634e487b7160e01b600052602260045260246000fd5b50919050565b634e487b7160e01b600052601160045260246000fd5b81810381811115610400576104006117f1565b60006020828403121561182c57600080fd5b815161121a816115b8565b600060018201611849576118496117f1565b5060010190565b80820180821115610400576104006117f1565b6001600160a01b0385811682528416602082015260408101839052608060608201819052600090611896908301846114c3565b9695505050505050565b6000602082840312156118b257600080fd5b815161121a8161146c565b600083516118cf81846020880161149f565b8351908301906118e381836020880161149f565b01949350505050565b601f8211156105fe57600081815260208120601f850160051c810160208610156119135750805b601f850160051c820191505b81811015610e445782815560010161191f565b815167ffffffffffffffff81111561194c5761194c6115fd565b6119608161195a84546117b7565b846118ec565b602080601f831160018114611995576000841561197d5750858301515b600019600386901b1c1916600185901b178555610e44565b600085815260208120601f198616915b828110156119c4578886015182559484019460019091019084016119a5565b50858210156119e25787850151600019600388901b60f8161c191681555b5050505050600190811b0190555056fea26469706673582212204f8fa31cb9eb4f5e9722ea587f9ccf53cb661424699cb1a00cb1cfd170ca95a964736f6c63430008140033",
  "linkReferences": {},
  "deployedLinkReferences": {}
}